:02000000B42921
:10000800FF00030E8301AD000A08AE008A017008E4
:10001800A6007408A5007808A4007A08A3007B0845
:10002800A2007C08A1007D08A0008B1C1C288B1056
:10003800A70A0319A80A00302806031D252801303D
:100048002706031D70280330A90080302906F00018
:100058008030003A7002031C6E280A308800AA011A
:1000680028302A0203186C280A30F4002908F00006
:100078001B217008B4000030B41BFF30B5000A30F3
:10008800F4002908F0001B217808F0007008B60079
:100098000030B61BFF30B7000910891436088700F6
:1000A8001A30FC00F830FD00FD0B5828FC0B5828CE
:1000B800000009148910340887001A30FC00F83051
:1000C800FD00FD0B6528FC0B65280000AA0A3428F2
:1000D800A90329288810062900302806031D762838
:1000E80002302706031DB52821308800AA012830D0
:1000F8002A020318B3280A30F4002908F0001B214B
:100108007008B8000030B81BFF30B9000A30F4009E
:100118002908F0001B217808F0007008BA000030A8
:10012800BA1BFF30BB00091089143A0887001A303F
:10013800FC00F830FD00FD0B9F28FC0B9F280000F9
:1001480009148910380887001A30FC00F830FD00BF
:10015800FD0BAC28FC0BAC280000AA0A7B28880100
:10016800062900302806031DBB2803302706031D77
:1001780006290330A90080302906F0008030003AB3
:100188007002031C042911308800AA0128302A02B1
:10019800031802290A30F4002908F0001B2170080E
:1001A800BC000030BC1BFF30BD000A30F400290839
:1001B800F0001B217808F0007008BE000030BE1B5C
:1001C800FF30BF00091089143E0887001A30FC0070
:1001D800F830FD00FD0BEE28FC0BEE28000009149A
:1001E80089103C0887001A30FC00F830FD00FD0B30
:1001F800FB28FC0BFB280000AA0ACA28A903BF2871
:10020800A701A8012608F0002508F4002408F80032
:100218002308FA002208FB002108FC002008FD0042
:0E0228002E088A002D0E8300FF0E7F0E0900A7
:1002360083120313FD01F8017008031900347406D4
:10024600FA00FA1BFD09FB01F41F2B29F409F40A35
:10025600F01F2F29F009F00A70087404FA00FA1B3F
:1002660053297408F802F00D700DF80D7408F8079C
:10027600F00D0630FC00700DF80D74087018F802C9
:10028600701CF807F00DFC0B3E29701CF8077B1854
:100296006129FD1F0034F009F00AF809F80A003454
:1002A600F41F5E29F01B5B297008F800F0014C2949
:1002B600F001F00A0034F009FB0A3429F80A740840
:1002C6007802031D4C29F801F00AF01F4C29FF346F
:0202D60008001E
:0E02D800831203132C088A002B0882000800F2
:1002E6006C218A110A128000840AAB0A0319AC0A2F
:0802F600F003031D7329080049
:1002FE000A3083120313F4002F08F0001B2170083C
:10030E00B0000030B01BFF30B1000A30F4002F08EF
:10031E00F0001B217808F0007008B2000030B21B0C
:10032E00FF30B30009108914320887001A30FC0020
:10033E00F830FD00FD0BA129FC0BA12900000914CA
:10034E008910300887001A30FC00F830FD00FD0BD4
:0A035E00AE29FC0BAE2900000800D8
:1003680083120313A701A801073083169F00861480
:1003780006148B170B160117831286148316870130
:100388008312870183168801831288018316091056
:100398008312091483168910831289148618372A40
:1003A8001730A90080302906F0008030003A70022A
:1003B800031C052A861CE129052A0810081288153D
:1003C80008158030033AF000803029067002031CBB
:1003D800F92908118814AA0128302A020318F929D2
:1003E8002908AF007F21AA0AF029AA0128302A0289
:1003F8000318032A2908AF007F21AA0AFA29A903AA
:10040800D6290F30A90080302906F0008030003A44
:100418007002031C362A861C122A362A8811881074
:10042800081488168030033AF000803029067002DC
:10043800031C2A2A88120816AA0128302A0203183F
:100448002A2A2908AF007F21AA0A212AAA012830CE
:100458002A020318342A2908AF007F21AA0A2B2A66
:0E046800A903072AD229861C392AD2293A2A4A
:02400E004A2F37
:00000001FF
